S0110000506F7765724D657465722E68657871
S1130000003000200D0B0000FD0F0000091000005F
S11300100910000009100000091000000910000078
S11300200910000009100000091000000910000068
S11300300910000009100000091000000910000058
S113004009100000091000003D1E00000910000006
S11300500910000009100000091000000910000038
S11300600910000009100000091000000910000028
S11300700910000009100000091000000910000018
S11300800910000009100000091000000910000008
S113009009100000091000000910000009100000F8
S11300A009100000091000000910000009100000E8
S11300B009100000091000000910000009100000D8
S1130400FFFFFFFFFFFFFFFFFFFFFFFF7EFFFFFF79
S113041002B4714649084900095C49008E4402BC93
S11304207047C046002934D00123002210B488420A
S11304302CD301242407A14204D2814202D209010F
S11304401B01F8E7E400A14204D2814202D2490030
S11304505B00F8E7884201D3401A1A434C08A042D3
S113046002D3001B5C0822438C08A04202D3001B69
S11304709C082243CC08A04202D3001BDC08224380
S1130480002803D01B0901D00909E3E7101C10BCA4
S11304907047002801D00020C04307B4024802A1DD
S11304A04018029003BDC046190000000029F0D096
S11304B003B5FFF7B9FF0EBC4243891A1847C0467B
S11304C07047C04680B584B000AF7860002001F06A
S11304D005FE021C7B68D31801331B041B0CFB6054
S11304E0002001F0FBFD031C1B041B0CBB60BA685D
S11304F0FB689A42F4D3BA6880231B029A4203D958
S1130500FA68034B9A42EBD9BD4604B080BDC0469D
S1130510FF7F000080B584B000AF78600023FB60EB
S113052007E0FA239B00181CFFF7CCFFFB6801339C
S1130530FB60FA687B689A42F3D3BD4604B080BD81
S113054080B582B000AF2F4B87225A62C0462D4B34
S11305501B681A1C80231340F9D02A4BDB6B9B05C4
S11305609A0D284B1B6CDB05DB0DD218254B5B6CFD
S1130570191CFF230B40D218224B9B6C191C7F23A0
S11305800B40D2181F4BDB6C191C3F230B40D218B5
S11305901C4B9B6B191C3F230B40D3185B08802218
S11305A012029B187B60174B7A68DA62154BDB6D7D
S11305B09B059A0D134B1B6EDB05DB0DD218114BFB
S11305C05B6E191CFF230B40D2180E4B9B6E191C3B
S11305D07F230B40D2180B4BDB6E191C3F230B40BF
S11305E0D218084B9B6D191C3F230B40D3185B0892
S11305F0802212029B187B60024B7A681A63BD4604
S113060002B080BD00B0034080B586B000AF3F4B60
S1130610181CFFF77FFFFFF793FF002001F05CFC3D
S1130620031C7B617B69181C01F0F8FC7B69181CB6
S113063001F006FD002001F087FE031C3B61344BF2
S1130640334AD27AD2B2802149420A43D2B2DA7210
S11306503B69181C01F028FF002000F06FFA031C0E
S1130660FB60FB68181C00F00DFBFB68181C00F015
S11306701BFB002000F02AFB031CBB60BB68181C9A
S113068000F0CAFBBB68181C00F0D8FB002000F087
S1130690E7FB031C7B607B68181C00F08BFC7B6809
S11306A0181C00F099FC1B4B04221A62194B4F22B0
S11306B05A62184B20221A60002001F00FFD031C1F
S11306C01B041A0C144B1A603A69FB1C101C191CED
S11306D0012201F011FF3B69181C01F0A5FF3B69E1
S11306E0181C01F033FF031CF5D0FB1C1B782B2BCB
S11306F002D02D2B04D007E0084B01221A6004E03D
S1130700064B00221A6000E0C046DDE788130000B3
S113071000A0064000B0034028F0FF1F34F0FF1F84
S113072090B589B000AFC24B1B685A42C04B1A60E7
S1130730BF4B1B685A00BF4B5B68D318FB60FA6859
S1130740BC4B5A60BC4BBD4A12681A6000237B61E3
S11307500BE07B699B00BA4A9B18BA4A7969890005
S11307608A581A607B6901337B617B69032BF0D95A
S1130770B54BB24A12681A6000237B610BE07B69B7
S11307809B00B24A9B18B24A796989008A581A6058
S11307907B6901337B617B69032BF0D9AD4B1A680C
S11307A0AD4B1B689A4206D0AA4B1B68002004215B
S11307B01A1C01F02DFD002001F090FC031C1B0409
S11307C01B0CBB60A54B1B68BA689A4204D2A44BAD
S11307D01B685A1CA24B1A60A04BBA681A609E4B45
S11307E01B68002B00D11CE10020002101F070FDEA
S11307F0031CDCB20020012101F06AFD031CDBB202
S11308005B00DBB22343DCB20020022101F060FD77
S1130810031CDBB29B00DBB22343DCB200200321C8
S113082001F056FD031CDBB29B01DAB2FB1D22432F
S11308301A708C4B1A68BB689A420CD9884B1B6897
S1130840013BFB61874B1B68BA68D31A80225202B2
S11308509B18BB6107E0824B1B68FB61814B1B68E3
S1130860BA68D31ABB6100233B617F4B3A695200DB
S11308707E49D1523B6901333B61FB691A0E7C4BC3
S11308805200D15A784B3A695200D1523B69013334
S11308903B61FB691A0CFF231A40754B5200D15A75
S11308A0714B3A695200D1523B6901333B61FB6998
S11308B01A0AFF231A406E4B5200D15A6A4B3A6906
S11308C05200D1523B6901333B61FA69FF231A405C
S11308D0674B5200D15A644B3A695200D1523B697A
S11308E001333B61BB691A0AFF231A40604B520073
S11308F0D15A5D4B3A695200D1523B6901333B6195
S1130900BA69FF231A405A4B5200D15A564B3A69DE
S11309105200D1523B6901333B61FB1D1A78544BA1
S11309205200D15A504B3A695200D1523B690133BB
S11309303B614F4A80239B00D15A4B4B3A6952008A
S1130940D1523B6901333B61FB6880333B60002338
S11309507B613AE07B695B00FA68D3181B889BB221
S11309601B0A9BB21A1CFF231A40414B5200D15A56
S11309703D4B3A695200D1523B6901333B617B697B
S11309805B00FA68D3181B889BB21A1CFF231A4019
S1130990374B5200D15A344B3A695200D1523B6919
S11309A001333B617A690F2313400F2B0AD1304A7C
S11309B080239B00D15A2C4B3A695200D1523B6997
S11309C001333B617B6901337B617B695B00FA68BE
S11309D0D2183B689A42BDD3254A80239B00D15A42
S11309E0214B3A695200D1523B6901333B613B6967
S11309F05A00204B9A60204B104A12681A60002358
S1130A007B610BE07B699B001C4A9B18194A79693E
S1130A1089008A581A607B6901337B617B69032BE7
S1130A20F0D90C4B1A680C4B1A60BD4609B090BD46
S1130A3000F0FF1F04F0FF1F18810040D4380000AD
S1130A4010810040DC3800002881004020810040F3
S1130A50EC38000034F0FF1F30F0FF1F2CF0FF1FB4
S1130A6024F0FF1F28F0FF1F38F0FF1F3E20000076
S1130A70FC38000014F0FF1F388100403081004032
S1130A8080B500AFBD4680BD80B582B000AF786050
S1130A90FFF746FEBD4602B080BDC04680B582B0B9
S1130AA000AF7860BD4602B080BDC04680B582B05C
S1130AB000AF7860BD4602B080BDC04680B582B04C
S1130AC000AF7860BD4602B080BDC04680B500AFBF
S1130AD000F066FBFFF798FDFEE7C04680B582B0E4
S1130AE000AF7860FEE7C04680B500AF054A064B0C
S1130AF0D31A054A101C00211A1C01F0FDFDBD4645
S1130B0080BDC04604F4FF1F24F0FF1F02F0A6FEC0
S1130B1000F080FAFFF7E8FF02F07CFE02F016FE18
S1130B2002F0AAFE044B0020191CFFF7CFFF031CA0
S1130B30181C01F0C5FDC04654F1FF1F80B584B0F8
S1130B4000AF7860494BFB60494BBB60FB68BA68F7
S1130B505A60FB685B687A681A60FB685B68454AA0
S1130B605A60FB685B6802225A72FB685B68002269
S1130B709A72FB685B6800221A72FB685B683E4AE3
S1130B80DA60FB685B6802225A74FB685B680022C7
S1130B909A74FB685B6801221A74FB685B68374AC5
S1130BA0126852005A61FB685B6801229A77FB68FD
S1130BB05B682822DA77FB685A6820230021D15425
S1130BC0FB685B6800221A77FB685B6800225A772F
S1130BD0FB685A6822230021D154FB685B68032216
S1130BE05A76FB685B6800229A76FB685B68012290
S1130BF0DA76FB685B680022DA74FB685A682123A2
S1130C000021D154FB685A6823230021D154FB6886
S1130C105A6824230021D154FB685A6825230021F3
S1130C20D154FB685B6800229A62FB685B6800220F
S1130C30DA62FB685A6830230021D154104B1B68D8
S1130C40002B06D1002000F0C3FB021CFB681A60D5
S1130C5003E00B4B1A68FB681A60094BFA685A6088
S1130C60FB68181CBD4604B080BDC04658F1FF1F88
S1130C7060F1FF1F10B0034000F3FF1F00F0FF1FDF
S1130C80A8F2FF1F80B582B000AF78607B681A6855
S1130C907B685B68101C191C00F07EFC031C181C8C
S1130CA0BD4602B080BDC04680B582B000AF78605A
S1130CB07B681A687B685B68101C191C00F09AFC3E
S1130CC0031C181CBD4602B080BDC04680B584B06C
S1130CD000AF78604A4BFB604A4BBB60FB68BA6864
S1130CE05A60FB685B687A681A60FB685B68464A0E
S1130CF05A60FB685B6800225A72FB685B680022DA
S1130D009A72FB685B6800221A72FB685B683F4A50
S1130D10DA60FB685B6800225A74FB685B68002237
S1130D209A74FB685B6800221A74FB685B68384A33
S1130D3012685A61FB685B6800229A77FB685B68FB
S1130D400022DA77FB685A6820230021D154FB681B
S1130D505B6800221A77FB685B6801225A77FB689C
S1130D605B6800221A76FB685A6822230021D1545A
S1130D70FB685B6803225A76FB685B6800229A76FC
S1130D80FB685B680222DA76FB685B680122DA742E
S1130D90FB685A6821230021D154FB685A68232335
S1130DA00021D154FB685A6824230021D154FB68E4
S1130DB05A6825230021D154FB685B6800229A629B
S1130DC0FB685B680022DA62FB685A683023002102
S1130DD0D154104B1B68002B06D1002000F0F8FA08
S1130DE0021CFB681A6003E00A4B1A68FB681A606D
S1130DF0084BFA689A61FB68181CBD4604B080BDB4
S1130E0094F1FF1F9CF1FF1FD438000008810040BB
S1130E10D8380000A8F2FF1F80B582B000AF786018
S1130E207B681A687B685B68101C191C00F0B4FBB3
S1130E30031C181CBD4602B080BDC04680B582B0FC
S1130E4000AF78607B681A687B685B68101C191CAB
S1130E5000F0D0FB031C181CBD4602B080BDC04688
S1130E6080B584B000AF78604A4BFB604A4BBB60EE
S1130E70FB68BA685A60FB685B687A681A60FB684A
S1130E805B68464A5A60FB685B6800225A72FB68DA
S1130E905B6800229A72FB685B6801221A72FB6825
S1130EA05B683F4ADA60FB685B6800225A74FB683F
S1130EB05B6800229A74FB685B6801221A74FB6801
S1130EC05B68384A12685A61FB685B6800229A774B
S1130ED0FB685B680022DA77FB685A6820230021EC
S1130EE0D154FB685B6800221A77FB685B680222B6
S1130EF05A77FB685B6800221A76FB685A682223DB
S1130F000021D154FB685B6800225A76FB685B6859
S1130F1000229A76FB685B680022DA76FB685B68DD
S1130F200122DA74FB685A6821230021D154FB683A
S1130F305A6823230121D154FB685A6824230121D0
S1130F40D154FB685A6825230121D154FB685B689E
S1130F50154A9A62FB685B68144ADA62FB685A684D
S1130F6030230021D154124B1B68002B06D10020E2
S1130F7000F02EFA021CFB681A6003E00C4B1A689E
S1130F80FB681A600A4BFA689A60FB68181CBD4635
S1130F9004B080BDD0F1FF1FD8F1FF1F04F0FF1F84
S1130FA000810040D0380000890A00009D0A00003A
S1130FB0A8F2FF1F80B582B000AF78607B681A6822
S1130FC07B685B68101C191C00F0E6FA031C181CF3
S1130FD0BD4602B080BDC04680B582B000AF786027
S1130FE07B681A687B685B68101C191C00F002FBA4
S1130FF0031C181CBD4602B080BDC04680B500AFBE
S1131000FFF73EFDBD4680BD80B500AFFFBEBD46C7
S113101080BDC04680B500AF544A5549554BD150A8
S1131020554A88235B010021D150534A5249534BFE
S1131030CB58B82189011943504BD1504E4A4E49DF
S11310404E4BCB58012119434C4BD1504A4A4C4B7F
S11310504C49D150484A48494B4BCB58802149020E
S11310601943494BD150444B434A1268C0210903E8
S11310700A431A60404A4049434BCB58191C434B1E
S11310800B408021490419433F4BD150404B404A07
S1131090926C111C3F4A0A409A643D4B3C4AD26C04
S11310A0111C3C4A0A40DA643B4B24225A703B4BE5
S11310B080221A70384B9B221A70374B364AD278EA
S11310C0D1B21F220A40D2B2DA70334B01221A7114
S11310D0314B00225A71C0462F4B9B79DBB21A1C4C
S11310E010231340F8D1C0462B4B9B79DBB21A1C5A
S11310F00C231340082BF7D1284B80221A70264B5F
S11311009B221A70244B24225A70234B01221A71F9
S1131110214B40225A71C0461F4B9B79DBB21A1CEB
S11311200C231340082BF7D1C0461B4B9B79DBB231
S11311301A1C40231340F8D0184B80221A70164B07
S11311401B221A70144B24225A70134B01221A7159
S1131150114B40225A71C0460F4B9B79DBB21A1CCB
S11311600C2313400C2BF7D1BD4680BD00E000E0FA
S113117000000000080D000000700440381000005A
S1131180441000000000011004100000FFFFFFFCE9
S113119000900440FFF8FFFE004006400050064067
S11311A080B500AF664B664A1269111C654A0A4055
S11311B0E021C9000A431A61634B634A5279D2B2EF
S11311C01F218A43D2B25A715F4B5F4A1279D2B25D
S11311D007218A43D2B21A715C4B5C4A1278D2B2AC
S11311E0D2B273218A43D2B250210A43D2B2D2B2CC
S11311F01A70564B554A5278D2B2D2B263218A43FE
S1131200D2B240210A43D2B2D2B25A704F4B4F4AA3
S11312109278D2B219218A43D2B29A704C4B0022EE
S11312201A704C4B4B4A9268111C464A0A409A6009
S1131230494B494A126D111C424A0A401A65464BF1
S1131240454A526D111C3F4A0A405A65434A434974
S1131250C3239B00CB581B02190AC3239B00D15004
S11312603F4B3F4A1268111C3E4A0A4003210A437D
S11312701A603B4B3A4AD268111C3A4A0A4003218D
S11312800A43DA60364B364A1269111C354A0A4061
S113129003210A431A61324B314A5269111C314A03
S11312A00A4003210A435A612D4B2D4A9269111CAD
S11312B02C4A0A4003210A439A61294B284AD269DD
S11312C0111C284A0A4003210A43DA61244B244AA8
S11312D0926A111C234A0A4003210A439A62204B52
S11312E01F4AD26A111C1F4A0A4003210A43DA62C8
S11312F0134B134A126D111C124A0A40E021C90013
S11313000A431A65154A1549C1239B00CB58191C79
S1131310154B1940C1239B00D15000F027F8002041
S113132000F056F8002000F0ADFE002001F00CF8AB
S113133000F098FE002000F0E1FE62B6BD4680BDDC
S113134000900440FFF8FFFE00F0074000D0074083
S113135000E0074000A0044000D0044000E100E0A9
S113136000B00440FCFFFFFEFFFF00FF80B500AFAC
S1131370144A1449144BCB58802109051943124BC4
S1131380D150124B7C229A60104B104AD268111C27
S113139010220A40DA600D4B00229A610B4B0022A6
S11313A0DA610A4B00229A62084B00221A62074B48
S11313B007225A62054B1F221A60044B1F225A60EF
S11313C0BD4680BD007004403C10000000B00340E6
S11313D090B587B000AF7860654B3B613B697A6834
S11313E01A64644A634982235B01CB588021490013
S11313F0194382235B01D1505E4A5E495E4BCB5850
S1131400022119435C4BD1505C4B3A691A605C4A27
S11314105B49C0239B00CB58191C5A4B0B408021BD
S113142009041943C0239B00D150554B544A1268F8
S113143004210A431A603B1C173300221A7028E067
S113144051493B1C17331A7884235B0012018A1814
S1131450D31800225A604C483B1C173319784A4C65
S11314603B1C17331A7884235B001201A218D3188B
S11314701B68802252041A4384235B00090141182B
S1131480CB181A603B1C17333A1C173212780132FE
S11314901A703B1C17331B78032BD1D93B1C173311
S11314A000221A700EE03B1C17331A783B690C3289
S11314B092000021D1503B1C17333A1C173212788A
S11314C001321A703B1C17331B78032BEBD93B1CDE
S11314D0173300221A703EE039693B1C17331A781F
S11314E0131C5B009B189B00CB18FB603B1C173341
S11314F01B78264AD25CFB681A70FB6800225A608B
S11315003B1C17331B78224AD25CFB681A72FB68B7
S113151000225A72FB6800229A723B1C17331B7814
S11315201A4AD35C1A1C3B690C329200F968D150F8
S11315303B1C17331B78154AD35C3A6910339B0064
S1131540D318043300221A603B1C17333A1C173299
S1131550127801321A703B1C17331B78032BBBD94A
S11315600C4B3A691A603B69181CBD4607B090BD24
S113157010F2FF1F007004403C10000064F2FF1FD3
S113158000E100E0FFFF00FF00800040003B00009E
S1131590043B0000A8F2FF1F80B586B000AF78605E
S11315A039607B683B613B1C173300221A703B682F
S11315B01B7F002B12D13B685B7F1A1C3B690C32EA
S11315C09200D358FB60FB685B68002B06D1FB6874
S11315D03A685A603B1C173301221A703B1C1733BC
S11315E01B78002B01D0002300E00923181CBD4602
S11315F006B080BD90B585B000AF78603960796879
S11316003A683B1C0833081C111C1A1C00F0ECFB44
S1131610031C01D1092354E33B68181C00F05EFB52
S1131620031C01D183234CE3BA683B1C0F331278AB
S11316301A70BB685B7A002B00D002E3EA493B1CBA
S11316400F331A7884235B0012018A18D3180022FE
S11316505A60E5483B1C0F331978E34C3B1C0F33AD
S11316601A7884235B001201A218D3181B68802205
S113167052041A4384235B0009014118CB181A60F1
S1131680D94A3B1C0F3318783B685968031C103344
S11316901B0199503B681B7A002B16D0D2483B1C87
S11316A00F331978D04C3B1C0F331A7884235B001A
S11316B01201A218D3185B688022D2031A43842330
S11316C05B0009014118CB185A60C7493B1C0F3312
S11316D018783B68DA68031C10331B01CB185A6076
S11316E03B681B7C002B16D0BF483B1C0F3319787A
S11316F0BD4C3B1C0F331A7884235B001201A218E3
S1131700D3185B68802212031A4384235B00090107
S11317104118CB185A60B4483B1C0F331978B24CAB
S11317203B1C0F331A7884235B001201A218D318D0
S11317305B681A1CAD4B1A403B689B7A1B031A4327
S113174084235B0009014118CB185A60A6483B1C4E
S11317500F331978A44C3B1C0F331A7884235B0095
S11317601201A218D3185B681A1CA14B1A403B68DB
S11317705B7A1B051A4384235B0009014118CB18CB
S11317805A6099483B1C0F331978974C3B1C0F3314
S11317901A7884235B001201A218D3185B681A1C00
S11317A0944B1A403B689B7C1B021A4384235B00C6
S11317B009014118CB185A608B483B1C0F33197828
S11317C0894C3B1C0F331A7884235B001201A21846
S11317D0D3185B681A1C884B1A403B685B7C5B041B
S11317E01A4384235B0009014118CB185A603B68F3
S11317F0DB7C002B16D17C483B1C0F3319787A4CC8
S11318003B1C0F331A7884235B001201A218D318EF
S11318105B68802292051A4384235B000901411806
S1131820CB185A6070483B1C0F3319786E4C3B1C24
S11318300F331A7884235B001201A218D3181B6893
S11318405B0E5A063B685B691A4384235B000901FB
S11318504118CB181A603B681B7E002B16D06248D7
S11318603B1C0F331978604C3B1C0F331A788423CC
S11318705B001201A218D3185B68802252051A4338
S113188084235B0009014118CB185A603A6822236B
S1131890D35C002B16D054483B1C0F331978524CA0
S11318A03B1C0F331A7884235B001201A218D3184F
S11318B05B68802212041A4384235B0009014118E7
S11318C0CB185A603B685B7E012B07D000DCC8E074
S11318D0022B53D0032B00D190E0C3E042483B1CC1
S11318E00F331978404C3B1C0F331A7884235B0068
S11318F01201A218D3185B683022934310221A43B2
S113190084235B0009014118CB185A6036483B1CFC
S11319100F331978344C3B1C0F331A7884235B0043
S11319201201A218D3185B680C221C1C9443221CBD
S11319303B689B7E9B001A4384235B00090141188A
S1131940CB185A6028483B1C0F331978264C3B1C93
S11319500F331A7884235B001201A218D3185B6832
S113196003221C1C9443221C3B68DB7E1A43842301
S11319705B0009014118CB185A6073E01A483B1CFC
S11319800F331978184C3B1C0F331A7884235B00EF
S11319901201A218D3185B683022934320221A4301
S11319A084235B0009014118CB185A600E483B1C84
S11319B00F3319780C4C3B1C0F331A7884235B00CB
S11319C01201A218D3185B680C221C1C9443221C1D
S11319D03B689B7E9B001A4384235B0009014118EA
S11319E0CB185A603EE0C04600800040FF0FFFFF66
S11319F0FFFFCFFFFFF0FFFFFFFFF9FFB3483B1CE2
S1131A000F331978B14C3B1C0F331A7884235B00D5
S1131A101201A218D3185B6830221A4384235B0096
S1131A2009014118CB185A60A8483B1C0F33197898
S1131A30A64C3B1C0F331A7884235B001201A218B6
S1131A40D3185B680C221C1C9443221C3B68DB7E6D
S1131A509B001A4384235B0009014118CB185A6088
S1131A6000E0C0463A682123D35C002B15D0974888
S1131A703B1C0F331978954C3B1C0F331A78842385
S1131A805B001201A218D3185B6880221A438423D6
S1131A905B0009014118CB185A608D4B1B78DBB2EF
S1131AA00133DBB28A4A191C1170012B04D1894B12
S1131AB0EFF3108072B61870BB6801225A72BB68CB
S1131AC001229A723A6830230121D1543A682323BF
S1131AD0D35C002B4AD07D483B1C0F3319787B4CD8
S1131AE03B1C0F331A7884235B001201A218D3180D
S1131AF05B68802212061A4384235B0009014118A3
S1131B00CB185A603A682423D35C002B14D03B1CB6
S1131B100F3318783B1C0F331B787A6810339B0003
S1131B20D31804331B6801221A437968031C103349
S1131B309B00CB1804331A603A682523D35C002B2E
S1131B4014D03B1C0F3318783B1C0F331B787A6876
S1131B5010339B00D31804331B6802221A4379689C
S1131B60031C10339B00CB1804331A605A4A3B1CE5
S1131B700F331B780021D1543B689B7F002B3AD054
S1131B80554A3B1C0F331B785348391C0F310978D5
S1131B90415CC9B2C9B23F208143C8B23968C97F28
S1131BA0C9B20143C9B2C9B2D1543A682023D35C43
S1131BB0002B0FD0484A3B1C0F331B784648391C76
S1131BC00F310978415CC9B2C9B240200143C9B29E
S1131BD0C9B2D154404A3B1C0F331B783E48391CD0
S1131BE00F310978415CC9B2C9B280204042014337
S1131BF0C9B2C9B2D15435483B1C0F331978334CA0
S1131C003B1C0F331A7884235B001201A218D318EB
S1131C105B688022D2051A4384235B0009014118C2
S1131C20CB185A602A4B1B78DBB2013BDBB2284A43
S1131C30191C1170002B43D1264B187880F310889F
S1131C403EE0234B1B78DBB20133DBB2204A191C84
S1131C501170012B04D11F4BEFF3108072B6187072
S1131C60BB6801229A723A6830230121D1543B683F
S1131C709B7F002B16D015483B1C0F331978134C4F
S1131C803B1C0F331A7884235B001201A218D3186B
S1131C905B688022D2051A4384235B000901411842
S1131CA0CB185A600A4B1B78DBB2013BDBB2084A03
S1131CB0191C1170002B03D1064B187880F310887F
S1131CC00023181CBD4605B090BDC04600800040EE
S1131CD00CF2FF1F00F4FF1F0010024080B584B017
S1131CE000AF78607B685B7A012B04D0022B07D0AD
S1131CF0002B0AD00EE03B1C0F3300221A700BE0BD
S1131D003B1C0F3301221A7006E03B1C0F330322E5
S1131D101A7001E0002362E07B685B7C012B04D035
S1131D20022B07D0002B0AD00EE03B1C0E330022FE
S1131D301A700BE03B1C0E3301221A7006E03B1CA8
S1131D400E3303221A7001E0002348E07B681B7EF7
S1131D50002B07D03A1C0F323B1C0E3312781B7831
S1131D609A4217D37B685B69DBB23A1C0E32127855
S1131D701340DBB2002B01D0002330E07B68DB682A
S1131D80DBB23A1C0E3212781340DBB2002B01D0C6
S1131D90002324E07B681B7E002B07D03A1C0F3203
S1131DA03B1C0E3312781B789A4217D27B685B690E
S1131DB0DBB23A1C0F3212781340DBB2002B01D095
S1131DC000230CE07B685B68DBB23A1C0F321278AC
S1131DD01340DBB2002B01D0002300E00123181CC8
S1131DE0BD4604B080BDC04680B586B000AFF86083
S1131DF0B9607A603B1C173300221A70BB685B7FA2
S1131E001A1CFB680C329200D3585A68BB689A4279
S1131E100CD13B1C173301221A70BB685B7F1A1C60
S1131E20FB680C329200D2587B681A603B1C173353
S1131E301B78181CBD4606B080BDC04680B582B074
S1131E4000AF234B1B687B60224A94235B00D3586A
S1131E501A1CE023DB0513401AD07B68DA6C0223DA
S1131E60134009D07B689B6B5B68DA6A7B689B6B69
S1131E705B681B68181C9047164A164994235B003C
S1131E80CB5880214904194394235B00D1501CE0B2
S1131E90104A104994235B00CB588021490419430C
S1131EA094235B00D1507B68DB6C1A1C0123134024
S1131EB0DBB2002B09D07B689B6B5B689A6A7B68FA
S1131EC09B6B5B681B68181C9047BD4602B080BDC5
S1131ED064F2FF1F0080004080B584B000AF7860DA
S1131EE0484BFB60484BBB60FB68BA685A60FB68B0
S1131EF05B687A681A60FB685B68444A5A60FB68EE
S1131F005B6801225A72FB685B6800229A72FB6864
S1131F105B6801221A72FB685B683D4ADA60FB6801
S1131F205B6801225A74FB685B6800229A74FB6840
S1131F305B6800221A74FB685B68364A12685A614F
S1131F40FB685B6801229A77FB685B680322DA7797
S1131F50FB685A6820230021D154FB685B68002287
S1131F601A77FB685B6803225A77FB685A68222356
S1131F700021D154FB685B6800225A76FB685B68D9
S1131F8000229A76FB685B680022DA76FB685B685D
S1131F900022DA74FB685A6821230121D154FB68BA
S1131FA05A6823230021D154FB685A682423002152
S1131FB0D154FB685A6825230021D154FB685B681F
S1131FC000229A62FB685B680022DA62FB685A6846
S1131FD030230021D154104B1B68002B06D1002064
S1131FE0FFF7F6F9021CFB681A6003E00A4B1A6853
S1131FF0FB681A60084BFA68DA60FB68181CBD4677
S113200004B080BD68F2FF1F70F2FF1F7C3800002F
S113201007A00640CC380000A8F2FF1F80B582B0AC
S113202000AF78607B681A687B685B68101C191CB9
S1132030FFF7B2FA031C181CBD4602B080BDC046AF
S113204080B582B000AF78607B681A687B685B6893
S1132050101C191CFFF7CEFA031C181CBD4602B055
S113206080BDC04680B500AF044B044A5269111CC0
S1132070034A0A405A61BD4680BDC04680F00F4005
S113208006F3FFFF80B584B000AF78600E4BFB60B1
S1132090FB687A681A600D4A0C490D4BCB58012134
S11320A019430B4BD1500B4B80221A60094B13225E
S11320B05A60084B05221A60074BFA681A61FB68DC
S11320C0181CBD4604B080BDA4F2FF1F007004407C
S11320D03810000000000440A8F2FF1F80B582B051
S11320E000AF7860044B0022DA60034BDB68181CF5
S11320F0BD4602B080BDC0460000044080B584B037
S113210000AF78603B4BFB60FB687A681A603A4B1F
S1132110394A1268111C394A0A401A60364B364A49
S11321205269111C364A0A40802149010A435A6106
S1132130344B344AD269111C334A0A408021490085
S11321400A43DA612F4B2F4A1268111C2E4A0A40A7
S1132150802149000A431A602A4B2A4AD268111C7A
S1132160294A0A40802149000A43DA60254B254A5E
S11321701269111C244A0A40802149000A431A6149
S1132180204B204A5269111C1F4A0A4080214900F1
S11321900A435A611B4B1B4A9269111C1A4A0A4092
S11321A0802149000A439A61164B164A926A111C0F
S11321B0154A0A40802149000A439A62114B114A88
S11321C0D26A111C104A0A40802149000A43DA628B
S11321D00C4B0C4A126B111C0B4A0A40802149001B
S11321E00A431A63094BFA68DA61FB68181CBD4696
S11321F004B080BDC8F2FF1F80F00F40FFEFFFFF67
S113220006E3FFFF00B00440FFF8FFFEA8F2FF1F43
S113221080B584B000AFF860B9607A60BB68042B05
S11322204AD8BB689A00264BD3181B689F46254B97
S1132230244A12688021101C8843011C7A68D0014A
S1132240FF2202400A431A6037E01E4B1D4A1268FF
S11322500121101C8843011C7868012202400A43B2
S11322601A602AE0174B174A12687821101C884319
S1132270011C7A68D000782202400A431A601CE0EC
S1132280104B104A1268111C0F4A11407A689002D0
S1132290C022120102400A431A600EE0094B094AA7
S11322A01268111C094A11407A68100380225201F5
S11322B002400A431A6000E0C046BD4604B080BD37
S11322C0083B000080F00FF8FFF3FFFFFFEFFFFF74
S11322D080B582B000AF786039603B68042B29D8A0
S11322E03B689A00164BD3181B689F46154B1B6915
S11322F01A1C80231340DB091EE0124B1B691A1CB5
S11323000123134018E00F4B1B691A1C7823134058
S1132310DB0811E00B4B1B691A1CC0231B01134083
S11323209B0A09E0074B1B691A1C80235B011340BD
S11323301B0B01E0C0460023181CBD4602B080BD43
S11323401C3B000080F00FF880B584B000AF7860CB
S11323504C4BFB60FB6800229A80FB6800229A8148
S1132360FB6800229A60FB680022DA81FB68002285
S11323709A82FB6800221A61FB687A689A61424A71
S11323804149424BCB588021C90019433F4BD1509E
S11323903F4B3F4A5268111C3E4A0A408021890043
S11323A00A435A603A4B3A4A9268111C394A0A4025
S11323B0802189000A439A60374B374AD278D2B2D7
S11323C008218A43D2B2DA70334B334AD278D2B27C
S11323D004218A43D2B2DA70FB6800221A80FB68B7
S11323E000229A702C4B00229A702B4B00229A7177
S11323F0294B00225A71244A2349284BCB58191CD3
S1132400274B0B408021C9041943244BD150224B44
S1132410214A1278D2B21F218A43D2B21A701E4BBB
S113242068225A701C4B1C4A927AD2B2D2B21F2133
S11324308A43D2B203210A43D2B2D2B29A72164B61
S1132440154AD27AD2B2D2B202210A43D2B2D2B25D
S1132450DA72114B104AD278D2B208218A43D2B22E
S1132460DA700D4B0C4AD278D2B204218A43D2B22C
S1132470DA700C4BFA685A61FB68181CBD4604B04C
S113248080BDC046CCF2FF1F007004403410000031
S113249000900440FFF8FFFE00A006400410000076
S11324A0FFFFFFF3A8F2FF1F80B584B000AF786090
S11324B07B68FB60FB689B78002B16D1FB680122CC
S11324C09A700C4B0B4AD278D2B2D2B208210A438A
S11324D0D2B2D2B2DA70074B064AD278D2B2D2B2B2
S11324E004210A43D2B2D2B2DA700023181CBD46CA
S11324F004B080BD00A0064080B586B000AFF8608F
S1132500B960BB1D1A80FB687B617B699B78002BDB
S113251001D1072316E0BB1D1B88002B01D18423A6
S113252010E07B699B89002B01D008230AE07B69BA
S1132530BA689A607B69BA1D12889A817B69002205
S11325409A800023181CBD4606B080BD80B584B0B7
S113255000AF78607B68FB60FB689B88181CBD46F5
S113256004B080BD90B583B000AF7860104BDB79C8
S1132570DBB21C1C7B689B89002B15D07B689B6895
S1132580E2B21A705A1C7B689A607B689B8801339C
S11325909AB27B689A807B689A887B689B899A4206
S11325A002D17B6800229A81BD4603B090BDC0462B
S11325B000A0064080B582B000AF78607B68DA89FD
S11325C07B689B8A9A421CD2164A7B681B691978DD
S11325D0D1715A1C7B681A617B68DB8901339AB21A
S11325E07B68DA817B68DA897B689B8A9A4216D198
S11325F07B6800229A827B689B69181CFEF756FA56
S11326000DE07B681B88102213439AB27B681A8002
S11326107B681B88012293439AB27B681A80BD466B
S113262002B080BD00A0064090B585B000AF7860D0
S11326307B68FB60214B1B79DBB21C1C221C0F2323
S1132640134009D01D4B0F221A711C4BDB79202338
S1132650221C9A43131C9CB2221C2023134003D037
S1132660FB68181CFFF77EFFFB681B881A1C0123FC
S11326701340DBB2002B07D0221C8023134003D06D
S1132680FB68181CFFF796FFFB681B881A1C1023B5
S113269013400FD0221C402313400BD0FB681B882F
S11326A0102293439AB2FB681A80FB689B69181C3A
S11326B0FEF704FABD4605B090BDC04600A0064032
S11326C038B5051C01F0BCF801F064F8084C236827
S11326D0002B02D0984700232360064C2368002B6C
S11326E002D0984700232360281CFEF7F7F938BD71
S11326F0E8F2FF1FECF2FF1F10B5041C00F0BDFF51
S1132700201C10BDF0B589B01D1C0EAB1B780C1C31
S113271004930FAB1F78013C0023019003910792AF
S113272002902370984217D1119A9A4214D1049BB3
S1132730002B01D06F2F32D0692F02D0642F00D02C
S1132740AAE0022D02D1039C023CA3E0012D00D09B
S1132750A2E0039C023C98E0692F0FD004D8582FC4
S113276019D0642F21D109E0752F04D0782F12D00D
S11327706F2F1AD115E0002500951BE0019A002A5D
S113278013DA80231B069A4212D05242012301928B
S1132790029200930EE00025009510260BE0119D97
S11327A000E000250095082605E00021009101E0E5
S11327B0012200920A260023069301E006901C1CC5
S11327C00298311CFDF772FE02980591311CFDF749
S11327D029FE05990290092902D80A1C303205E025
S11327E0059A3732782F01D1059A57320698029903
S11327F0631ED2B21A7001300029DFD1082E09D12C
S11328000499002906D0302A04D00698A31E302249
S11328101A700230079A022A10D10099002901D1B6
S1132820002D02D0109A013A109210991191102E95
S113283004D1049A002A01D002391191039A002488
S1132840D11A119A8918164A914225DC302202E0E5
S1132850013B1A70013011991C1C8842F8DB102EC0
S11328600AD1019A002A07D0049B002B04D0631ECE
S11328701F70023C302323700099002902D0013CD0
S11328802D2308E0012D02D1013C2B2303E0022D6E
S113289002D1013C20232370201C09B0F0BDC046A6
S11328A0FD010000F0B5AD4C0027A5441C1CAC4B49
S11328B00B916B4420210A90197009920897EBE15F
S11328C00998252100F028FF0490002810D10998C8
S11328D000F031FF089F021C3F18002800D1E4E1FA
S11328E00B9809990A9DA847002800D0DDE1DAE198
S11328F0049D09982D1A079507D02A1C0B9809994D
S11329000A9DA847002800D1CDE1049845782B1CE6
S1132910252D0AD100260230012309900696321C87
S1132920311CB446371C0593A6E0049A0021012506
S113293001320F1C05952B2B00D1BDE104DC202BAB
S113294008D0232B11D109E02D2B00D1B2E1302B7B
S11329500BD105E0012F00D0B0E1B3E10121B1E1D9
S1132960059D002D00D0ABE1ACE12A2B03D000255E
S113297006950A2612E0251D24680694002C03DA25
S11329806042002306900593501C53782C1C0AE0E7
S1132990069B73435D190695537801321D1C303D27
S11329A0101C092DF4D96F4A069D954206DD0026B8
S11329B001300990FF25321CB4465DE02E2B1CD15A
S11329C043782A2B04D0421C0A20002684460CE0BB
S11329D026680434F343DB0F9C46837802300EE010
S11329E063465E435378761901321D1C303D101C3A
S11329F0092DF5D90125AC4601E00026B446682B23
S1132A0000D162E103226C2B00D15FE10022DDB230
S1132A106E2B2FD00ADC632B1BD002DC582B28D161
S1132A2010E0642B0ED0692B23D10BE0732B13D051
S1132A3004DC6F2B06D0702B1BD110E0752B01D05A
S1132A40782B16D16346002B0ED0059B022B11D197
S1132A500CE06346002B0CD1002A0AD10AE0782549
S1132A6008260322012105E0012603E00123059342
S1132A7000E0FF25013009900898079BC0180890D2
S1132A806E2D75D010D8632D00D184E006D8252D85
S1132A9000D186E0582D00D089E022E0642D0FD0CB
S1132AA0692D00D083E00BE0732D36D003D86F2D51
S1132AB000D07CE015E0752D13D0782D77D110E08F
S1132AC0231D07932068032A06D0022A01D100B2ED
S1132AD002E0012A00D140B20091069901950291C9
S1132AE00FE0231D07932068032A06D0022A01D190
S1132AF080B202E0012A00D1C0B2069A0091019589
S1132B0002928DA9059A3B1C0396FFF7FBFD041E58
S1132B104DD0154F6F443F1B59E0231D2468079384
S1132B20002C00D1114C002907D0604627780134CD
S1132B3000284CD0B74249DC49E06246201C002AF8
S1132B4007D0321C00F0DBFD371C00283FD0071BE8
S1132B503DE000F0F0FD071C39E0C046C4FDFFFF76
S1132B6036020000FD01000033020000303B00008B
S1132B70251D07952368022A05D0032A08D0002AB8
S1132B8000D088E004E068462021085A188082E0DA
S1132B90089D1D607FE02268201D0DAB07901A7010
S1132BA002E00DAB1D7007941C1C01270FE0049874
S1132BB000F0C1FD089F041E06D00B980499221C46
S1132BC00A9DA84700286ED03F196EE0371C05986F
S1132BD03E1C00283FD03023022800D020233D4A49
S1132BE06A44137022782D2A04D02B2A02D0049729
S1132BF0202A0CD10497302B09D10B98211C0122D7
S1132C000A9B984700284ED0781E013404900599F9
S1132C10022911D1412D01D0612D0DD1049D012D29
S1132C2041DD0B98211C02220A9DA84700283AD0B6
S1132C30049D0234023D04953E1C08E025490B988E
S1132C40694401220A9DA84700282CD00136069D1C
S1132C50AE42F3DB049F002F06D00B98211C3A1CD4
S1132C600A9DA84700281ED0059D002D10D109E01B
S1132C7025700B98211C01220A9B9847002812D02A
S1132C80013602E0144C20256C4406988642EFDBA2
S1132C90089DAD190895079C099D2B78002B00D041
S1132CA00EE6089F01E001277F42381C8F239B001A
S1132CB09D44F0BD002504E0012703E0022701E064
S1132CC0022505955378013235E602224378013016
S1132CD09DE6C0463602000037020000F0B5ADB0F4
S1132CE01193329B07904F2000240A9268445A1E85
S1132CF093410F1C0F940C9409940D940B94261C6F
S1132D00037072E3069800F0B9FB051E20D00A9DFB
S1132D10013528780A9500F0B1FB0028F7D1002C82
S1132D2000D061E300E001360021079D381C0A1C35
S1132D30A847051C00F0A2FB0028F4D1681C04D1AC
S1132D40329C002C00D15CE30124381C291C24E3B0
S1132D50069960426041129025291CD000281AD09F
S1132D60291C079C381C2A1CA047069CC1B2A142FE
S1132D700BD0381C0122079DA847329C002C00D19F
S1132D803FE30A9D01350A952EE30A9C013601347E
S1132D900A942C1C29E31FAD0021281C2822FFF7CC
S1132DA0ABFC0A99B148497868600691081C25294A
S1132DB013D115A8E970021C0BCD0BC20BCD0BC2AD
S1132DC00BCD0BC2296811600A9D02350A950025B6
S1132DD010950E95A54D08951DE12A2903D00A9D4D
S1132DE00135059506E001232B700A9D02350595F2
S1132DF00A9DA878021C303A092A36D80021089185
S1132E00A4460A210025059B00E0131C4D433038DD
S1132E102D1858785A1C041C303C092CF5D90593FC
S1132E201FAB644608959C462095002D19D10125B9
S1132E306D4215A8DD700690021C191C29C929C20F
S1132E4029C929C229C929C209681160059D614699
S1132E5002350A780A95FF250695089D0E9510956A
S1132E60CEE0012361464B7005921FAA682802D068
S1132E706C280FD10BE0059B0221917059786829C9
S1132E8000D0E5E201215B1891700593E0E2032193
S1132E909170DDE21FAAD0705838202800D993E041
S1132EA0FDF7B6FA9492922D929292929292921582
S1132EB094929292929492929292949411929219E0
S1132EC09294929294000321917078217DE09178FC
S1132ED000297BD078E09178002901D0FF21D170BE
S1132EE0059B00221FA9FF208D1801322872202A79
S1132EF0FAD1C1224A72FE2205930A7366E09178E0
S1132F00002901D0FF21D170059D6A785E2A04D082
S1132F10013500200595069005E0059901238A787E
S1132F200231059106935D2A33D11FAAD17C059DF8
S1132F3020200143D1746A780135059529E0D4B283
S1132F40E1081FA8072541182C400120A040041CBB
S1132F50087A2043087258782D2817D199780029C7
S1132F6014D05D290CD111E0D5B2E8081FAC2018AB
S1132F70072425400124AC40251C047A2C43047208
S1132F8001328A42F0DDDA78033304E00133021CB3
S1132F9001E0059BA4465D2A01D0002ACFD16446F6
S1132FA00593002A02D1FF211FAA0EE0069D002DE1
S1132FB00CD0059B29A921AA1078C04310700132B6
S1132FC08A42F9D1059301E0FF21D1701FA915A808
S1132FD0021C081C8C462AC82AC22AC82AC22AC82B
S1132FE02AC20068634610605D781A7810959D784F
S1132FF00E95DD7806955D680895059D01350A9561
S11330000025AA4208D1069D252D04D011980568F3
S11330100430119000E0002506996E290ED0129A12
S1133020002A0BD0079C381C00210222A047041E52
S113303004D0329C002C00D1E3E1012406986928D5
S11330402DD015D85B2800D12BE106D8252800D136
S1133050EBE0582800D0D4E14EE00699632900D172
S113306088E0642900D0CCE117E0C046FFFFFF7F71
S1133070069A732A00D1F9E006D86E2A00D19DE1A0
S11330806F2A00D0BDE106E0069B752B36D0782B65
S113309000D0B6E130E0082031E00A2000E0002052
S11330A0002C20D129AB00932AAB01932BAB0293C4
S11330B008993B1C079A00F0F8F9299B002B05D1CD
S11330C0329C002C00D197E101240EE080210906F6
S11330D0F6184318002B04D02A9B002B01D043423E
S11330E003E0031C01E001240023002D3ED00E9ACE
S11330F0101C032A2CD934E0102000E00A20002CF4
S11331001FD129AB00932AAB01932BAB0293079AEF
S11331103B1C089900F0C9F9299A031C002A06D11E
S1133120329C002C00D16AE10124131C0BE0B61878
S11331302A9A002A07D080221206904203D04342E2
S113314001E001240023002D10D00E98032808D894
S1133150FDF75EF9060204062B7002E02B8000E006
S11331602B600B9D63426341ED180B950D9D01355A
S11331700D9578E01098002801D101210891002DC7
S11331803DD0002329939C4200D02DE1099804E00E
S11331902870299B013501332993089A002A16D0F7
S11331A0329B002B04D0299B002B0CDA01200F90BA
S11331B000210A1C381C079B98470899013908917B
S11331C0421CE5D103E0002509900F9500E0099029
S11331D0299B002B09D00F9D002D0BD14F20684453
S11331E00278002A00D0F8E004E0329C002C00D1E0
S11331F007E1F9E00B9DF61801350B95DAE0299506
S1133200089D02E0299B01332993002D08D0002159
S1133210381C0A1C079B9847013D09900130F1D1E5
S1133220299B002B00D0C5E0EBE0002C00D0D8E0B7
S113323000E001360021079D381C0A1CA847051C24
S113324000F01CF90028F4D1252D0BD0291C079C73
S1133250381C0122A047329D01240C94002D00D17A
S1133260CFE0C2E0013601250C95BEE001200C90B0
S1133270002C16D1381C211C221C03E0002101362D
S1133280381C0A1C079B98470690069800F0F6F82D
S11332900028F3D1381C06990122079B9847012086
S11332A00C90002D54D0002329939C4200D09BE025
S11332B0089909980139069114E0069AC3B2013AB3
S11332C0069207221A40012191408C4615AAD9087A
S11332D05118097A624611421DD02B70299B013581
S11332E001332993069B191C0893013113D0329A98
S11332F0002A04D0299B002B09DC01230F93002111
S11333000A1C381C079B9847411CD6D103E00022B5
S113331009900F9200E0099009AB1978299B002BC2
S113332007D00F9800280CD14F2068440278002A57
S113333007D0381C0122079CA047329D002D60D085
S113334052E0F61800232B700B9D01350B952AE0F3
S11333502995089D0998013D0FE0C3B207221A4040
S1133360012191400A1CDB0815A9CB181B7A013DE9
S113337013420CD0299B0133299308956A1C06D06B
S113338000210A1C381C079B9847411CE5D1299B46
S11333900990002B05D10999381C0122079DA847E3
S11333A023E00999F618089D002D03DB381C01223F
S11333B0079DA8470D9D01350D9516E0002D14D0ED
S11333C00E98032811D8FDF723F8040602042E8072
S11333D00BE02E6009E02E7007E0002501240F9514
S11333E003E001240C9400E001240A9D2D78069545
S11333F0002D00D086E404E001240C9401E00125B2
S11334000C95381C00210222079DA847002802D0F1
S11334100D9C002C16D00C9D002D16D00D9C002C5C
S113342013D100210A1C381C079DA8470021041C45
S11334300222381CA847002804D1381C211C012270
S1133440A84702E001235B420B930B982DB0F0BD1B
S113345005994878013105911CE5C04600B58022E4
S1133460031C52000020934204D8034AD31858780E
S11334700123184000BDC046313B000000B5802246
S1133480031C52000020934204D8034AD3185878EE
S11334901023184000BDC046313B000000B5031C9A
S11334A0613B192B00D8203800BDF0B589B00591D7
S11334B001920F99109A029300230B60061C13606B
S11334C0012811D098420FDB059A059B013A1A4353
S11334D0D20F09D1242807DC0298111C019B9847BC
S11334E00127041C3D1C02E00024271C40250496EF
S11334F0002E05D001204042311CFCF793FF0490BC
S1133500059A0021D21703910691079293E0681E51
S11335100F2800D98FE0FCF77BFF082E8E3F8E8E9C
S11335208E518E8E8E8E8E8E8E51201CFFF7A6FFAE
S1133530021E09D000210A1C0298019B9847069993
S1133540041C0131069176E02B2C07D10298111C42
S1133550019B98470137041C02256CE002252D2CA1
S113356069D1111C019B029898470F9901230137D7
S1133570041C0B605FE0102E02D00825002E5AD1E7
S11335800825302C57D1002102980A1C019B98472A
S11335900137041C04254EE0782C01D0582C09D1A5
S11335A0002102980A1C019B98470137041C082536
S11335B0102640E01025002E3AD03CE0002E00D129
S11335C00A260499002905D101204042311CFCF748
S11335D029FF0490201C3038092808D9201CFFF743
S11335E03DFF002805D0201CFFF758FF3738B042B4
S11335F003DB102D1ED120251DE0039A049901231D
S11336008A4201D8109A1368039AC4B27243D14310
S11336108C4200D90123109982180B600021039277
S113362002980A1C019B98470137041C102502E0EC
S1133630082600E04025611C0BD0079A0599FB0F72
S1133640B9425341DBB2002B03D060231D4200D1A9
S11336505DE734231D4003D10E9A0395156004E001
S1133660069B013F0E99FF180F600298211C01224E
S1133670019B9847039809B0F0BD30B5C9B2031C4B
S11336801F2A35D9444203232340041C002B07D0AE
S1133690D21A1D1C013D21700134002DFAD1C41829
S11336A0002905D00D06080428430B0201431943E1
S11336B05009231C00280ED0051C013D19605960D7
S11336C09960D960196159619961D9612033002DDC
S11336D0F3D14301E318D006400F07D0041C1D1C8E
S11336E0013C02C5002CFBD180001B1803200240C2
S11336F0002A03D01970013A0133F9E730BD10B53F
S1133700C9B2821804E00478431C8C4203D0181C0C
S11337109042F8D1002010BD00B5C9B202E08B423E
S113372008D0101C0378421C002BF8D14B4259419D
S11337304942084000BD00B5031C1A1C0133591E40
S113374009780029F9D1101A00BD000038B50B4CD6
S11337500B4D01E008CC9847AC42FBD1094C0A4D13
S113376001E008CC9847AC42FBD1084C084D01E07D
S113377008CC9847AC42FBD138BDC046343C00006D
S1133780343C0000343C0000343C0000343C000075
S1133790343C000038B5084C084D01E008CC98478B
S11337A0AC42FBD1064C074D02E0043C2368984729
S11337B0AC42FAD138BDC046343C0000343C000071
S11337C0343C0000343C000030B5002A20D088424C
S11337D01ED003240123214207D1204205D1944263
S11337E003D220C9043A20C010E0194209D118427A
S11337F007D1934205D20D88023A05800231023086
S113380004E00D78013A057001310130002AE2D15B
S113381030BD000010B5094C002C0ED004E06068E7
S1133820A268FFF7D1FF0C3421680029F7D163683F
S1133830002BF4D1A368002BF1D110BD583C00003B
S113384010B5054B1C6803E0A068636898472468BA
S1133850002CF9D110BDC046FCF2FF1F054B181C0B
S1133860002805D0854681B00020C043009001B0F7
S1133870F746704700300020F74670474375727270
S1133880656E74204D6561737572656D656E740D3A
S11338900A2075736520272B27206B657920746FA8
S11338A0207374617274206C6F6767696E67202778
S11338B02D27206B657920746F2073746F70206CD2
S11338C06F6767696E670D0A0A0000004D0000000B
S11338D0100000000000000104000000D4380000C3
S11338E008810040040000003800000004F0FF1FBD
S11338F0008100401000000000004880303030316A
S11339003032303330343035303630373038303987
S1133910304130423043304430453046313031312B
S1133920313231333134313531363137313831395F
S11339303141314231433144314531463230323103
S11339403232323332343235323632373238323937
S113395032413242324332443245324633303331DB
S1133960333233333334333533363337333833390F
S113397033413342334333443345334634303431B3
S113398034323433343434353436343734383439E7
S1133990344134423443344434453446353035318B
S11339A035323533353435353536353735383539BF
S11339B03541354235433544354535463630363163
S11339C03632363336343635363636373638363997
S11339D0364136423643364436453646373037313B
S11339E0373237333734373537363737373837396F
S11339F03741374237433744374537463830383113
S1133A003832383338343835383638373838383946
S1133A1038413842384338443845384639303931EA
S1133A20393239333934393539363937393839391E
S1133A3039413942394339443945394641304131B4
S1133A4041324133413441354136413741384139BE
S1133A504141414241434144414541464230423162
S1133A604232423342344235423642374238423996
S1133A70424142424243424442454246433043313A
S1133A80433243334334433543364337433843396E
S1133A904341434243434344434543464430443112
S1133AA04432443344344435443644374438443946
S1133AB044414442444344444445444645304531EA
S1133AC0453245334534453545364537453845391E
S1133AD045414542454345444545454646304631C2
S1133AE046324633463446354636463746384639F6
S1133AF04641464246434644464546460D0A000072
S1133B0000010203000001002E2200004A220000EE
S1133B1064220000802200009C220000EC220000AD
S1133B20FA220000062300001423000024230000CE
S1133B300000808080808080808080909090909031
S1133B408080808080808080808080808080808071
S1133B508080180404040404040404040404040415
S1133B600404020202020202020202020404040425
S1133B7004040443434343434341414141414141DC
S1133B8041414141414141414141414141040404D8
S1133B90040404232323232323212121212121215C
S1133BA02121212121212121212121212104040458
S1133BB0048000000000000000000000000000007D
S1133BC000000000000000000000000000000000F1
S1133BD000000000000000000000000000000000E1
S1133BE000000000000000000000000000000000D1
S1133BF000000000000000000000000000000000C1
S1133C0000000000000000000000000000000000B0
S1133C1000000000000000000000000000000000A0
S1133C200000000000000000000000000000000090
S1073C30000000008C
S1133C344000000010B0034080F3FF1F8000000028
S1133C4434002C6038F0FF1F07A006401C0100005C
S1073C548000526036
S1133C58343C000000F0FF1F2400000000000000B6
S10B3C68000000000000000050
S9030B0DE4
